:100000000C9462000C948A000C948A000C948A0070
:100010000C948A000C948A000C948A000C948A0038
:100020000C948A000C948A000C948A000C948A0028
:100030000C948A000C948A000C948A000C948A0018
:100040000C947F030C948A000C944D030C942703AA
:100050000C948A000C948A000C948A000C948A00F8
:100060000C948A000C948A000000000024002700F1
:100070002A000000000023002600290000000000E4
:10008000250028002B0004040404040404040202D4
:100090000202020203030303030301020408102007
:1000A0004080010204081020010204081020000012
:1000B0000008000201000003040700000000000027
:1000C0000000C50311241FBECFEFD8E0DEBFCDBFB7
:1000D00011E0A0E0B1E0ECE1FBE002C005900D9280
:1000E000A835B107D9F722E0A8E5B1E001C01D921B
:1000F000A730B207E1F710E0C2E6D0E004C02197D4
:10010000FE010E948605C136D107C9F70E940D0481
:100110000C948C050C94000020910502309106028D
:100120002115310549F046E0429FC001439F900DE3
:10013000112405970197F1F70895AF92BF92CF92DE
:10014000DF92EF92FF920F931F93CF93DF936C0197
:100150007B018B01040F151FEB015E01AE18BF0878
:10016000C017D10759F06991D601ED91FC9101902A
:10017000F081E02DC6010995892B79F7C501DF9142
:10018000CF911F910F91FF90EF90DF90CF90BF9094
:10019000AF900895FC01538D448D252F30E0842FBE
:1001A00090E0821B930B541710F0CF96089501979F
:1001B0000895FC01918D828D981761F0A28DAE0F8C
:1001C000BF2FB11D5D968C91928D9F5F9F73928F13
:1001D00090E008958FEF9FEF0895FC01918D828D3F
:1001E000981731F0828DE80FF11D858D90E008950C
:1001F0008FEF9FEF0895FC01918D228D892F90E064
:10020000805C9F4F821B91098F739927089585E623
:1002100091E00E94FB0021E0892B09F420E0822F6D
:10022000089580E090E0892B29F00E940701811158
:100230000C9400000895FC01A48DA80FB92FB11DE6
:10024000A35ABF4F2C91848D90E001968F7399270C
:10025000848FA689B7892C93A089B1898C918370EA
:1002600080648C93938D848D981306C00288F389E3
:10027000E02D80818F7D80830895EF92FF920F9310
:100280001F93CF93DF93EC0181E0888F9B8D8C8D42
:1002900098131AC0E889F989808185FF15C09FB736
:1002A000F894EE89FF896083E889F98980818370F9
:1002B000806480839FBF81E090E0DF91CF911F91A8
:1002C0000F91FF90EF900895F62E0B8D10E00F5FC9
:1002D0001F4F0F731127E02E8C8D8E110CC00FB69F
:1002E00007FCFACFE889F989808185FFF5CFCE0137
:1002F0000E941B01F1CFEB8DEC0FFD2FF11DE35A96
:10030000FF4FF0829FB7F8940B8FEA89FB898081B9
:100310008062CFCFCF93DF93EC01888D8823B9F033
:10032000AA89BB89E889F9898C9185FD03C0808100
:1003300086FD0DC00FB607FCF7CF8C9185FFF2CF7D
:10034000808185FFEDCFCE010E941B01E9CFDF91B7
:10035000CF910895833081F028F4813099F0823074
:10036000A9F008958730A9F08830C9F08430B1F43D
:10037000809180008F7D03C0809180008F77809373
:100380008000089584B58F7784BD089584B58F7DEE
:10039000FBCF8091B0008F778093B000089580915B
:1003A000B0008F7DF9CFCF93DF93282F30E0F90194
:1003B000E255FF4F8491F901E656FF4FD491F901C0
:1003C000EA57FF4FC491CC2391F081110E94AA01FA
:1003D000EC2FF0E0EE0FFF1FE458FF4FA591B49112
:1003E0008FB7F894EC91D095DE23DC938FBFDF912B
:1003F000CF910895CF93DF93282F30E0F901E25594
:10040000FF4F8491F901E656FF4FD491F901EA5765
:10041000FF4FC491CC23A1F081110E94AA01EC2FBF
:10042000F0E0EE0FFF1FEE58FF4FA591B491EC9155
:10043000ED2381E090E009F480E0DF91CF91089511
:1004400080E090E0FACFCF93DF9390E0FC01E65696
:10045000FF4F24918A579F4FFC0184918823D1F04C
:1004600090E0880F991FFC01E859FF4FA591B491C6
:10047000FC01E458FF4FC591D49161110EC09FB7A4
:10048000F8948C91E22FE0958E238C932881E223BF
:10049000E8839FBFDF91CF9108958FB7F894EC91D7
:1004A000E22BEC938FBFF6CFCF93DF93C2E0D2E085
:1004B00061E089810E9423020E948C0060E08881B3
:1004C0000E9423020E948C0060E089810E94230226
:1004D000DF91CF910C948C000F931F93CF93DF93F8
:1004E000D82FC8E061E0809102020E9423020E949E
:1004F0008C000D2F10E060E0D0FF61E080910302DE
:100500000E9423020E948C0060E0809102020E94FF
:1005100023020E948C0015950795D02FC15011F72A
:1005200061E0809102020E94230260E08091030258
:100530000E9423020E948C0060E0809102020E94CF
:1005400023020E948C00809103020E94FA01C82FAE
:10055000811105C061E0809103020E9423020E9484
:100560008C0061E0809102020E9423020E948C00B4
:1005700081E0C11101C080E0DF91CF911F910F9107
:10058000089561E0809103020E9423020C948C0084
:10059000FC0101900020E9F73197AF01481B590B8E
:1005A000BC0185E691E00C949D008F929F92AF92E2
:1005B000BF920F931F93CF93DF93CDB7DEB7A19771
:1005C0000FB6F894DEBF0FBECDBF19A2423008F4BB
:1005D0004AE08E010F5D1F4F842E912CB12CA12C6F
:1005E000A50194010E946405E62FB901CA01EA3011
:1005F000F4F4E05DD801EE938D01232B242B252B01
:1006000079F790E080E0109719F0CD010E94C802C0
:10061000A1960FB6F894DEBF0FBECDBFDF91CF918C
:100620001F910F91BF90AF909F908F900895E95CBC
:10063000E1CFCF93DF930E94C802EC0182E391E007
:100640000E94C8028C0F9D1FDF91CF9108951F92C9
:100650000F920FB60F9211242F933F934F935F93F6
:100660006F937F938F939F93AF93BF93EF93FF937A
:1006700085E691E00E941B01FF91EF91BF91AF9140
:100680009F918F917F916F915F914F913F912F91AA
:100690000F900FBE0F901F9018951F920F920FB6DC
:1006A0000F9211242F938F939F93EF93FF93E091D9
:1006B0007501F09176018081E0917B01F0917C01E0
:1006C00082FD1BC0908180917E018F5F8F7320918E
:1006D0007F01821741F0E0917E01F0E0EB59FE4F7F
:1006E000958F80937E01FF91EF919F918F912F9134
:1006F0000F900FBE0F901F9018958081F4CF1F921E
:100700000F920FB60F9211242F933F938F939F93C5
:10071000AF93BF9380915D0190915E01A0915F01C5
:10072000B091600130915C0121E5230F2D3728F055
:1007300024ED230F0196A11DB11D20935C01809330
:100740005D0190935E01A0935F01B0936001809181
:10075000580190915901A0915A01B0915B01019605
:10076000A11DB11D8093580190935901A0935A0186
:10077000B0935B01BF91AF919F918F913F912F916A
:100780000F900FBE0F901F901895CF93DF93E5E663
:10079000F1E01382128288EE93E0A0E0B0E084835F
:1007A0009583A683B78384E291E09183808385EC6F
:1007B00090E09587848784EC90E09787868780EC2B
:1007C00090E0918B808B81EC90E0938B828B82EC1C
:1007D00090E0958B848B86EC90E0978B868B118EC6
:1007E000128E138E148EC2E0D2E082E0888383E002
:1007F000898384E690E09C838B8360E082E00E94A2
:10080000230260E089810E94230288810E94D30133
:100810008981DF91CF910C94D301CF93DF9300D0E6
:1008200000D0CDB7DEB7789484B5826084BD84B53E
:10083000816084BD85B5826085BD85B5816085BDDB
:1008400080916E00816080936E0010928100809193
:10085000810082608093810080918100816080931B
:100860008100809180008160809380008091B10040
:1008700084608093B1008091B00081608093B0006B
:1008800080917A00846080937A0080917A008260FF
:1008900080937A0080917A00816080937A008091C1
:1008A0007A00806880937A001092C1008AE0809379
:1008B0000402E0917501F091760182E08083E0917D
:1008C0007101F09172011082E0917301F091740155
:1008D0008AE1808310927D01E0917901F0917A01A3
:1008E00086E08083E0917701F091780180818061DA
:1008F0008083E0917701F091780180818860808326
:10090000E0917701F0917801808180688083E091A7
:100910007701F091780180818F7D808385E391E07C
:100920000E94190360E2E62E61E0F62E00E111E07C
:1009300060E0F80181918F010E942302E016F10628
:10094000B9F7CE0101966C0150E0A52E50E0B52E0E
:1009500084E391E00E9419031092610110926201F8
:10096000109263011092640140E1E42E41E0F42E04
:10097000F70181917F010E94FA014C012C01990F2E
:10098000660877084AE0C301B20177FE0DC06DE248
:1009900085E691E00E943D0166277727CB01641927
:1009A0007509860997094AE00E94D5028091610184
:1009B00090916201A0916301B0916401880F991F29
:1009C000AA1FBB1FF1E08F229924A401990C660B8A
:1009D000770B842B952BA62BB72B809361019093DB
:1009E0006201A0936301B0936401E016F10609F07F
:1009F000BFCF84E391E00E9419036091610170917F
:100A0000620180916301909164014AE00E94D502E5
:100A100082E391E00E94C80285E591E00E94C8024D
:100A20006091610170916201809163019091640114
:100A300040E10E94D50282E391E00E94C8028091C9
:100A4000610190916201FE013596DC01AF70BB2718
:100A5000A050BF4F2C91229324E0969587952A951C
:100A6000E1F7EC15FD0589F70E94C10280E40E94C0
:100A70006C020E9454020E94C10280EC0E946C022F
:100A800089810E946C028A810E946C028B810E9483
:100A90006C028C810E946C020E9454020E94C1026E
:100AA000809104028F7080580E946C020E94540250
:100AB000A114B10409F44CCF0E940701882309F462
:100AC00047CF0E94000044CFA1E21A2EAA1BBB1BF5
:100AD000FD010DC0AA1FBB1FEE1FFF1FA217B3070A
:100AE000E407F50720F0A21BB30BE40BF50B661F20
:100AF000771F881F991F1A9469F7609570958095E4
:100B000090959B01AC01BD01CF010895EE0FFF1F31
:0C0B10000590F491E02D0994F894FFCFBB
:100B1C003F065B4F666D7D077F6F777C395E797121
:100B2C000405060708090A0B0C0D0E0F1011121301
:100B3C00000000003D019D00CA008A01FB00D900A5
:100B4C00ED000D0A005374617274696E67203635BE
:100B5C003032206164647265737320636F756E74D8
:080B6C006572210A00307800D7
:00000001FF
