:020000040000FA
:100000000C9462000C948A000C948A000C948A0070
:100010000C948A000C948A000C948A000C948A0038
:100020000C948A000C948A000C948A000C948A0028
:100030000C948A000C948A000C948A000C948A0018
:100040000C9429030C948A000C94F7020C94D102AE
:100050000C948A000C948A000C948A000C948A00F8
:100060000C948A000C948A000000000024002700F1
:100070002A000000000023002600290000000000E4
:10008000250028002B0004040404040404040202D4
:100090000202020203030303030301020408102007
:1000A0004080010204081020010204081020000012
:1000B0000008000201000003040700000000000027
:1000C0000000730311241FBECFEFD8E0DEBFCDBF09
:1000D00011E0A0E0B1E0EEEBF9E002C005900D9276
:1000E000A635B107D9F722E0A6E5B1E001C01D921F
:1000F000A530B207E1F710E0C2E6D0E004C02197D6
:10010000FE010E94D704C136D107C9F70E94BB0384
:100110000C94DD040C940000809103029091040281
:100120008230910538F0880F991F880F991F059725
:100130000197F1F70895AF92BF92CF92DF92EF92BD
:10014000FF920F931F93CF93DF936C017B018B0181
:10015000040F151FEB015E01AE18BF08C017D107D1
:1001600059F06991D601ED91FC910190F081E02D5B
:10017000C6010995892B79F7C501DF91CF911F91B0
:100180000F91FF90EF90DF90CF90BF90AF900895C8
:10019000FC01538D448D252F30E0842F90E0821B8D
:1001A000930B541710F0CF96089501970895FC0112
:1001B000918D828D981761F0A28DAE0FBF2FB11D6A
:1001C0005D968C91928D9F5F9F73928F90E00895C2
:1001D0008FEF9FEF0895FC01918D828D981731F07C
:1001E000828DE80FF11D858D90E008958FEF9FEFD0
:1001F0000895FC01918D228D892F90E0805C9F4FA6
:10020000821B91098F739927089583E691E00E94DC
:10021000F90021E0892B09F420E0822F089580E085
:1002200090E0892B29F00E94050181110C940000B7
:100230000895FC01A48DA80FB92FB11DA35ABF4F7B
:100240002C91848D90E001968F739927848FA689D5
:10025000B7892C93A089B1898C91837080648C9329
:10026000938D848D981306C00288F389E02D8081D8
:100270008F7D80830895EF92FF920F931F93CF930A
:10028000DF93EC0181E0888F9B8D8C8D98131AC0D1
:10029000E889F989808185FF15C09FB7F894EE89B8
:1002A000FF896083E889F989808183708064808315
:1002B0009FBF81E090E0DF91CF911F910F91FF9060
:1002C000EF900895F62E0B8D10E00F5F1F4F0F7308
:1002D0001127E02E8C8D8E110CC00FB607FCFACFC3
:1002E000E889F989808185FFF5CFCE010E94190147
:1002F000F1CFEB8DEC0FFD2FF11DE35AFF4FF08294
:100300009FB7F8940B8FEA89FB8980818062CFCFF9
:10031000CF93DF93EC01888D8823B9F0AA89BB893C
:10032000E889F9898C9185FD03C0808186FD0DC027
:100330000FB607FCF7CF8C9185FFF2CF808185FF48
:10034000EDCFCE010E941901E9CFDF91CF91089541
:10035000833081F028F4813099F08230A9F008953B
:100360008730A9F08830C9F08430B1F480918000E2
:100370008F7D03C0809180008F77809380000895E7
:1003800084B58F7784BD089584B58F7DFBCF809130
:10039000B0008F778093B00008958091B0008F7D7A
:1003A000F9CFCF93DF93282F30E0F901E255FF4FCB
:1003B0008491F901E656FF4FD491F901EA57FF4FB6
:1003C000C491CC2391F081110E94A801EC2FF0E0A0
:1003D000EE0FFF1FE458FF4FA591B4918FB7F8942B
:1003E000EC91D095DE23DC938FBFDF91CF91089500
:1003F000CF93DF93282F30E0F901E255FF4F84912E
:10040000F901E656FF4FD491F901EA57FF4FC49125
:10041000CC23A1F081110E94A801EC2FF0E0EE0F97
:10042000FF1FEE58FF4FA591B491EC91ED2381E0B1
:1004300090E009F480E0DF91CF91089580E090E0B2
:10044000FACFCF93DF9390E0FC01E656FF4F249163
:100450008A579F4FFC0184918823C9F090E0880F50
:10046000991FFC01E859FF4FA591B491FC01E45894
:10047000FF4FC591D49161110DC09FB7F8948C9135
:10048000209582238C938881282328839FBFDF9126
:10049000CF910895623051F49FB7F8943C91822F28
:1004A000809583238C93E8812E2BEFCF8FB7F89420
:1004B000EC912E2B2C938FBFEACFCF93DF93C0E02C
:1004C000D2E061E089810E9421020E948C0060E0FC
:1004D00088810E9421020E948C0060E089810E9434
:1004E0002102DF91CF910C948C000F931F93CF9337
:1004F000DF93D82FC8E061E0809100020E942102C2
:100500000E948C000D2F10E060E0D0FF61E0809130
:1005100001020E9421020E948C0060E08091000292
:100520000E9421020E948C0015950795D02FC15082
:1005300011F761E0809100020E94210260E0809149
:1005400001020E9421020E948C0060E08091000262
:100550000E9421020E948C00809101020E94F801F9
:10056000C82F811105C061E0809101020E94210223
:100570000E948C0061E0809100020E9421020E9492
:100580008C0081E0C11101C080E0DF91CF911F910B
:100590000F91089561E0809101020E9421020C9464
:1005A0008C001F920F920FB60F9211242F933F933E
:1005B0004F935F936F937F938F939F93AF93BF936B
:1005C000EF93FF9383E691E00E941901FF91EF9171
:1005D000BF91AF919F918F917F916F915F914F915B
:1005E0003F912F910F900FBE0F901F9018951F9263
:1005F0000F920FB60F9211242F938F939F93EF9327
:10060000FF93E0917301F09174018081E091790191
:10061000F0917A0182FD1BC0908180917C018F5FF7
:100620008F7320917D01821741F0E0917C01F0E011
:10063000ED59FE4F958F80937C01FF91EF919F9133
:100640008F912F910F900FBE0F901F901895808162
:10065000F4CF1F920F920FB60F9211242F933F9356
:100660008F939F93AF93BF9380915B0190915C01B7
:10067000A0915D01B0915E0130915A0123E0230FFA
:100680002D3758F50196A11DB11D20935A01809375
:100690005B0190935C01A0935D01B0935E0180913A
:1006A000560190915701A0915801B09159010196BE
:1006B000A11DB11D8093560190935701A09358013D
:1006C000B0935901BF91AF919F918F913F912F911D
:1006D0000F900FBE0F901F90189526E8230F0296DB
:1006E000A11DB11DD2CFCF93DF93E3E6F1E01382DA
:1006F000128288EE93E0A0E0B0E084839583A68325
:10070000B78384E291E09183808385EC90E09587C4
:10071000848784EC90E09787868780EC90E0918BCB
:10072000808B81EC90E0938B828B82EC90E0958BB8
:10073000848B86EC90E0978B868B118E128E138EB5
:10074000148EC0E0D2E082E0888383E0898384E66F
:1007500090E09C838B8360E082E00E94210260E055
:1007600089810E94210288810E94D1018981DF91C3
:10077000CF910C94D101CF93DF9300D000D0CDB7AF
:10078000DEB7789484B5826084BD84B5816084BD11
:1007900085B5826085BD85B5816085BD80916E001F
:1007A000816080936E001092810080918100826050
:1007B000809381008091810081608093810080918D
:1007C00080008160809380008091B100846080937C
:1007D000B1008091B00081608093B00080917A0078
:1007E000846080937A0080917A00826080937A009E
:1007F00080917A00816080937A0080917A0080688D
:1008000080937A001092C1008AE080930202E09106
:100810007301F091740182E08083E0916F01F091A7
:1008200070011082E0917101F09172018FEC808370
:1008300010927B01E0917701F091780186E080834E
:10084000E0917501F0917601808180618083E09173
:100850007501F0917601808188608083E091750157
:10086000F0917601808180688083E0917501F0913C
:10087000760180818F7D80834FE150E062E371E0FB
:1008800083E691E00E949B0042E050E062E571E067
:1008900083E691E00E949B0000E111E062E0F80134
:1008A00081918F010E942102F1E000321F07B1F710
:1008B0008E010F5F1F4F50E0E52E50E0F52E40E116
:1008C000C42E41E0D42EF60181916F010E94F801FF
:1008D00040915F01509160016091610170916201EE
:1008E000440F551F661F771F81709927092E000C32
:1008F000AA0BBB0B842B952BA62BB72B80935F01E8
:1009000090936001A0936101B0936201F0E2CF1671
:10091000F1E0DF06C1F60196A11DB11D80935F01D4
:1009200090936001A0936101B0936201FE0135963E
:10093000DC01AF70BB27A050BF4F2C91229324E065
:10094000969587952A95E1F7E017F10789F70E94B8
:10095000CA0280E40E9475020E945D020E94CA02DF
:1009600080EC0E94750289810E9475028A810E9432
:1009700075028B810E9475028C810E9475020E9413
:100980005D020E94CA02809102028F7080580E940C
:1009900075020E945D02E114F10409F490CF0E94F7
:1009A0000501882309F48BCF0E94000088CFEE0F49
:1009B000FF1F0590F491E02D0994F894FFCF3F06B6
:1009C0005B4F666D7D077F6F777C395E79710405BB
:1009D000060708090A0B0C0D0E0F10111213000068
:1009E00000003B019B00C8008801F900D700EB0024
:1009F0005374617274696E672036353032206164D9
:100A0000647265737320636F756E746572210A007A
:040A10000D0A0000CB
:107E0000112484B714BE81FFF0D085E080938100F7
:107E100082E08093C00088E18093C10086E0809377
:107E2000C20080E18093C4008EE0C9D0259A86E02C
:107E300020E33CEF91E0309385002093840096BBD3
:107E4000B09BFECF1D9AA8958150A9F7CC24DD24C4
:107E500088248394B5E0AB2EA1E19A2EF3E0BF2EE7
:107E6000A2D0813461F49FD0082FAFD0023811F036
:107E7000013811F484E001C083E08DD089C08234E0
:107E800011F484E103C0853419F485E0A6D080C0E4
:107E9000853579F488D0E82EFF2485D0082F10E0AE
:107EA000102F00270E291F29000F111F8ED06801E7
:107EB0006FC0863521F484E090D080E0DECF843638
:107EC00009F040C070D06FD0082F6DD080E0C81688
:107ED00080E7D80618F4F601B7BEE895C0E0D1E017
:107EE00062D089930C17E1F7F0E0CF16F0E7DF06D8
:107EF00018F0F601B7BEE89568D007B600FCFDCFD4
:107F0000A601A0E0B1E02C9130E011968C91119780
:107F100090E0982F8827822B932B1296FA010C0160
:107F200087BEE89511244E5F5F4FF1E0A038BF0790
:107F300051F7F601A7BEE89507B600FCFDCF97BE46
:107F4000E89526C08437B1F42ED02DD0F82E2BD052
:107F50003CD0F601EF2C8F010F5F1F4F84911BD097
:107F6000EA94F801C1F70894C11CD11CFA94CF0C13
:107F7000D11C0EC0853739F428D08EE10CD085E9AC
:107F80000AD08FE07ACF813511F488E018D01DD067
:107F900080E101D065CF982F8091C00085FFFCCF94
:107FA0009093C60008958091C00087FFFCCF809118
:107FB000C00084FD01C0A8958091C6000895E0E648
:107FC000F0E098E1908380830895EDDF803219F02E
:107FD00088E0F5DFFFCF84E1DECF1F93182FE3DFCA
:107FE0001150E9F7F2DF1F91089580E0E8DFEE27F6
:047FF000FF270994CA
:027FFE00040479
:00000001FF
